{
  "_format": "hh-sol-artifact-1",
  "contractName": "Transactions",
  "sourceName": "contracts/Transactions.sol",
  "abi": [
    {
      "anonymous": false,
      "inputs": [
        {
          "indexed": false,
          "internalType": "address",
          "name": "from",
          "type": "address"
        },
        {
          "indexed": false,
          "internalType": "address",
          "name": "to",
          "type": "address"
        },
        {
          "indexed": false,
          "internalType": "uint256",
          "name": "amount",
          "type": "uint256"
        },
        {
          "indexed": false,
          "internalType": "string",
          "name": "message",
          "type": "string"
        },
        {
          "indexed": false,
          "internalType": "uint256",
          "name": "timestamp",
          "type": "uint256"
        },
        {
          "indexed": false,
          "internalType": "string",
          "name": "keyword",
          "type": "string"
        }
      ],
      "name": "Transfer",
      "type": "event"
    },
    {
      "inputs": [],
      "name": "getTransactionCount",
      "outputs": [
        {
          "internalType": "uint256",
          "name": "",
          "type": "uint256"
        }
      ],
      "stateMutability": "view",
      "type": "function"
    },
    {
      "inputs": [],
      "name": "getTransactions",
      "outputs": [
        {
          "components": [
            {
              "internalType": "address",
              "name": "from",
              "type": "address"
            },
            {
              "internalType": "address",
              "name": "to",
              "type": "address"
            },
            {
              "internalType": "uint256",
              "name": "amount",
              "type": "uint256"
            },
            {
              "internalType": "string",
              "name": "message",
              "type": "string"
            },
            {
              "internalType": "uint256",
              "name": "timestamp",
              "type": "uint256"
            },
            {
              "internalType": "string",
              "name": "keyword",
              "type": "string"
            }
          ],
          "internalType": "struct Transactions.TransferStructure[]",
          "name": "",
          "type": "tuple[]"
        }
      ],
      "stateMutability": "view",
      "type": "function"
    },
    {
      "inputs": [
        {
          "internalType": "address payable",
          "name": "reciever",
          "type": "address"
        },
        {
          "internalType": "uint256",
          "name": "amount",
          "type": "uint256"
        },
        {
          "internalType": "string",
          "name": "message",
          "type": "string"
        },
        {
          "internalType": "string",
          "name": "keyword",
          "type": "string"
        }
      ],
      "name": "sendToBlockchain",
      "outputs": [],
      "stateMutability": "nonpayable",
      "type": "function"
    }
  ],
  "bytecode": "0x608060405234801561001057600080fd5b50610c75806100206000396000f3fe608060405234801561001057600080fd5b50600436106100415760003560e01c80632e7700f0146100465780637c4bf8161461006457806383920e9014610080575b600080fd5b61004e61009e565b60405161005b9190610568565b60405180910390f35b61007e60048036038101906100799190610767565b6100a7565b005b610088610269565b6040516100959190610a10565b60405180910390f35b60008054905090565b60016000808282546100b99190610a61565b9250508190555060016040518060c001604052803373ffffffffffffffffffffffffffffffffffffffff1681526020018673ffffffffffffffffffffffffffffffffffffffff16815260200185815260200184815260200142815260200183815250908060018154018082558091505060019003906000526020600020906006020160009091909190915060008201518160000160006101000a81548173ffffffffffffffffffffffffffffffffffffffff021916908373ffffffffffffffffffffffffffffffffffffffff16021790555060208201518160010160006101000a81548173ffffffffffffffffffffffffffffffffffffffff021916908373ffffffffffffffffffffffffffffffffffffffff1602179055506040820151816002015560608201518160030190805190602001906101f89291906104ac565b506080820151816004015560a082015181600501908051906020019061021f9291906104ac565b5050507f416cfa4330a4565f45c2fd2dd4826a83a37443aba2ce6f79477c7355afac35fa33858585428660405161025b96959493929190610b6f565b60405180910390a150505050565b60606001805480602002602001604051908101604052809291908181526020016000905b828210156104a357838290600052602060002090600602016040518060c00160405290816000820160009054906101000a900473ffffffffffffffffffffffffffffffffffffffff1673ffffffffffffffffffffffffffffffffffffffff1673ffffffffffffffffffffffffffffffffffffffff1681526020016001820160009054906101000a900473ffffffffffffffffffffffffffffffffffffffff1673ffffffffffffffffffffffffffffffffffffffff1673ffffffffffffffffffffffffffffffffffffffff1681526020016002820154815260200160038201805461037690610c0d565b80601f01602080910402602001604051908101604052809291908181526020018280546103a290610c0d565b80156103ef5780601f106103c4576101008083540402835291602001916103ef565b820191906000526020600020905b8154815290600101906020018083116103d257829003601f168201915b505050505081526020016004820154815260200160058201805461041290610c0d565b80601f016020809104026020016040519081016040528092919081815260200182805461043e90610c0d565b801561048b5780601f106104605761010080835404028352916020019161048b565b820191906000526020600020905b81548152906001019060200180831161046e57829003601f168201915b5050505050815250508152602001906001019061028d565b50505050905090565b8280546104b890610c0d565b90600052602060002090601f0160209004810192826104da5760008555610521565b82601f106104f357805160ff1916838001178555610521565b82800160010185558215610521579182015b82811115610520578251825591602001919060010190610505565b5b50905061052e9190610532565b5090565b5b8082111561054b576000816000905550600101610533565b5090565b6000819050919050565b6105628161054f565b82525050565b600060208201905061057d6000830184610559565b92915050565b6000604051905090565b600080fd5b600080fd5b600073ffffffffffffffffffffffffffffffffffffffff82169050919050565b60006105c282610597565b9050919050565b6105d2816105b7565b81146105dd57600080fd5b50565b6000813590506105ef816105c9565b92915050565b6105fe8161054f565b811461060957600080fd5b50565b60008135905061061b816105f5565b92915050565b600080fd5b600080fd5b6000601f19601f8301169050919050565b7f4e487b7100000000000000000000000000000000000000000000000000000000600052604160045260246000fd5b6106748261062b565b810181811067ffffffffffffffff821117156106935761069261063c565b5b80604052505050565b60006106a6610583565b90506106b2828261066b565b919050565b600067ffffffffffffffff8211156106d2576106d161063c565b5b6106db8261062b565b9050602081019050919050565b82818337600083830152505050565b600061070a610705846106b7565b61069c565b90508281526020810184848401111561072657610725610626565b5b6107318482856106e8565b509392505050565b600082601f83011261074e5761074d610621565b5b813561075e8482602086016106f7565b91505092915050565b600080600080608085870312156107815761078061058d565b5b600061078f878288016105e0565b94505060206107a08782880161060c565b935050604085013567ffffffffffffffff8111156107c1576107c0610592565b5b6107cd87828801610739565b925050606085013567ffffffffffffffff8111156107ee576107ed610592565b5b6107fa87828801610739565b91505092959194509250565b600081519050919050565b600082825260208201905092915050565b6000819050602082019050919050565b600061083d82610597565b9050919050565b61084d81610832565b82525050565b61085c8161054f565b82525050565b600081519050919050565b600082825260208201905092915050565b60005b8381101561089c578082015181840152602081019050610881565b838111156108ab576000848401525b50505050565b60006108bc82610862565b6108c6818561086d565b93506108d681856020860161087e565b6108df8161062b565b840191505092915050565b600060c0830160008301516109026000860182610844565b5060208301516109156020860182610844565b5060408301516109286040860182610853565b506060830151848203606086015261094082826108b1565b91505060808301516109556080860182610853565b5060a083015184820360a086015261096d82826108b1565b9150508091505092915050565b600061098683836108ea565b905092915050565b6000602082019050919050565b60006109a682610806565b6109b08185610811565b9350836020820285016109c285610822565b8060005b858110156109fe57848403895281516109df858261097a565b94506109ea8361098e565b925060208a019950506001810190506109c6565b50829750879550505050505092915050565b60006020820190508181036000830152610a2a818461099b565b905092915050565b7f4e487b7100000000000000000000000000000000000000000000000000000000600052601160045260246000fd5b6000610a6c8261054f565b9150610a778361054f565b9250827fffffffffffffffffffffffffffffffffffffffffffffffffffffffffffffffff03821115610aac57610aab610a32565b5b828201905092915050565b610ac081610832565b82525050565b6000819050919050565b6000610aeb610ae6610ae184610597565b610ac6565b610597565b9050919050565b6000610afd82610ad0565b9050919050565b6000610b0f82610af2565b9050919050565b610b1f81610b04565b82525050565b600082825260208201905092915050565b6000610b4182610862565b610b4b8185610b25565b9350610b5b81856020860161087e565b610b648161062b565b840191505092915050565b600060c082019050610b846000830189610ab7565b610b916020830188610b16565b610b9e6040830187610559565b8181036060830152610bb08186610b36565b9050610bbf6080830185610559565b81810360a0830152610bd18184610b36565b9050979650505050505050565b7f4e487b7100000000000000000000000000000000000000000000000000000000600052602260045260246000fd5b60006002820490506001821680610c2557607f821691505b60208210811415610c3957610c38610bde565b5b5091905056fea2646970667358221220006ab704e7891c5dee6dd99890e386b861943befd842687047637ebe31289e8b64736f6c63430008090033",
  "linkReferences": {},
  "deployedLinkReferences": {}
}